:1000000012C02CC02BC02AC029C028C027C026C0BF
:1000100025C024C023C022C021C020C01FC01EC0D4
:100020001DC01CC01BC011241FBECFE5D4E0DEBF25
:10003000CDBF10E0A0E6B0E0ECE5F4E002C0059032
:100040000D92A236B107D9F720E0A2E6B0E001C0D8
:100050001D92AA36B207E1F7F0D0FEC1D1CF8F9240
:100060009F92AF92BF92CF92DF92EF92FF924B019D
:100070005C0120E030E04AE753E463D16B017C018E
:1000800020E030E040E85FE3DBD087FD2CC020E0DB
:100090003FEF4FE757E4C701B6014FD11816E4F41C
:1000A00020E030E040E251E4C501B4014AD1CCD0B7
:1000B00029E130E06115710549F4FF90EF90DF9080
:1000C000CF90BF90AF909F908F900895C9010197F6
:1000D000F1F761507109EECFC701B601B5D0CB0180
:1000E0000197F1F7EACF61E070E0F9CF87B386605E
:1000F00087BBA49A81E008950F931F93CF93DF935A
:100100008C01D0E0C0E0F801808190E00C2E02C0AC
:10011000959587950A94E2F780FF17C0AC9A60E046
:1001200070E080E291E49BDFC29A60E070E080E2E0
:1001300091E495DFC2982196C830D10521F781E07E
:10014000DF91CF911F910F910895AC98E8CFC19A9C
:1001500060E070E080E291E482DFC19881E0089580
:10016000CF93DF930F92CDB7DEB71982CE01019600
:10017000C3DF91E0811101C090E0892F0F90DF91E2
:10018000CF91089584B3817F84BB85B38E6085BB96
:1001900081E0089583B323B331E083FB882780F99E
:1001A0008327880F806122FB222720F92327822BB7
:1001B00093B3969591709327880F892B8770089534
:1001C00081B38F6081BB81B3806F81BB0895CF9372
:1001D000DF93EC01CB0190DFBADF8881809582BB91
:1001E00081E0DF91CF91089580916000880F29F020
:1001F0008093600080E690E0089581E0F9CF76DF9B
:10020000AFDFA5DFBFDFDCCFCF93DF930F92CDB79A
:10021000DEB7C0DF80936100E7DF209161002983B2
:10022000BC01CE010196D3DF60E070E080EA91E48A
:1002300016DF0F90DF91CF910895E1DFE5DFFECF6C
:100240002FD008F481E0089557D088F09F5790F0A0
:10025000B92F9927B751A0F0D1F0660F771F881FEB
:10026000991F1AF0BA95C9F712C0B13081F05ED06B
:10027000B1E008955BC0672F782F8827B85F39F009
:10028000B93FCCF3869577956795B395D9F73EF44A
:1002900090958095709561957F4F8F4F9F4F0895F2
:1002A000990F0008550FAA0BE0E8FEEF1616170687
:1002B000E807F907C0F012161306E407F50798F0EF
:1002C000621B730B840B950B39F40A2661F0232B08
:1002D000242B252B21F408950A2609F4A140A69584
:1002E0008FEF811D811D089557FD9058440F551FB4
:1002F00059F05F3F71F04795880F97FB991F61F0A8
:100300009F3F79F087950895121613061406551F1E
:10031000F2CF4695F1DF08C0161617061806991F8A
:10032000F1CF86957105610508940895E894BB277F
:1003300066277727CB0197F90895B2DF08F48FEF8E
:1003400008950BD078C069D028F06ED018F09523AE
:1003500009F05AC05FC01124EACFC6DFA0F3959F11
:10036000D1F3950F50E0551F629FF001729FBB279C
:10037000F00DB11D639FAA27F00DB11DAA1F649F48
:100380006627B00DA11D661F829F2227B00DA11DFB
:10039000621F739FB00DA11D621F839FA00D611D81
:1003A000221F749F3327A00D611D231F849F600DA2
:1003B000211D822F762F6A2F11249F5750408AF0DB
:1003C000E1F088234AF0EE0FFF1FBB1F661F771F67
:1003D000881F91505040A9F79E3F510570F014C0FE
:1003E000A6CF5F3FECF3983EDCF386957795679553
:1003F000B795F795E7959F5FC1F7FE2B880F911D85
:100400009695879597F9089597F99F6780E870E02A
:1004100060E008959FEF80EC089500240A9416167A
:10042000170618060906089500240A9412161306E2
:10043000140605060895092E0394000C11F4882370
:1004400052F0BB0F40F4BF2B11F460FF04C06F5F8C
:0C0450007F4F8F4F9F4F0895F894FFCF0F
:02045C00010895
:00000001FF
