:1000000012C021C020C01FC01EC01DC01CC01BC00C
:100010001AC019C018C017C016C015C014C013C02C
:1000200012C011C010C011241FBECFE5D4E0DEBF46
:10003000CDBF20E0A0E6B0E001C01D92A836B20717
:10004000E1F7E0D0EEC1DCCF8F929F92AF92BF92EA
:10005000CF92DF92EF92FF924B015C0120E030E003
:100060004AE753E453D16B017C0120E030E040E8E3
:100070005FE3CBD087FD2CC020E03FEF4FE757E494
:10008000C701B6013FD11816E4F420E030E040E2A9
:1000900051E4C501B4013AD1BCD029E130E0611589
:1000A000710549F4FF90EF90DF90CF90BF90AF9033
:1000B0009F908F900895C9010197F1F761507109E0
:1000C000EECFC701B601A5D0CB010197F1F7EACF7A
:1000D00061E070E0F9CF87B3866087BBA49A81E0C6
:1000E00008950F931F93CF93DF938C01D0E0C0E06E
:1000F000F801808190E00C2E02C0959587950A94B6
:10010000E2F780FF17C0AC9A60E070E080E291E413
:100110009BDFC29A60E070E080E291E495DFC298D4
:100120002196C830D10521F781E0DF91CF911F9151
:100130000F910895AC98E8CFC19A60E070E080E23A
:1001400091E482DFC19881E00895CF93DF930F920D
:10015000CDB7DEB71982CE010196C3DF91E08111E0
:1001600001C090E0892F0F90DF91CF91089584B363
:10017000817F84BB85B38E6085BB81E0089583B3A6
:1001800023B331E083FB882780F98327880F8061C0
:1001900022FB222720F92327822B93B39695917077
:1001A0009327880F892B8770089581B38F6081BB57
:1001B00081B3806F81BB0895CF93DF93EC01CB01B6
:1001C00090DFBADF8881809582BB81E0DF91CF919B
:1001D000089581DFBADFB0DFCADFE7CFCF93DF93C7
:1001E00000D0CDB7DEB7CBDF9FE09A838983BE0115
:1001F0006F5F7F4FCE010296DFDF0F900F90DF9190
:10020000CF910895E6DFEADFFECF2FD008F481E03A
:10021000089557D088F09F5790F0B92F9927B7517C
:10022000A0F0D1F0660F771F881F991F1AF0BA95BA
:10023000C9F712C0B13081F05ED0B1E008955BC063
:10024000672F782F8827B85F39F0B93FCCF38695B0
:1002500077956795B395D9F73EF49095809570950D
:1002600061957F4F8F4F9F4F0895990F0008550F4D
:10027000AA0BE0E8FEEF16161706E807F907C0F02C
:1002800012161306E407F50798F0621B730B840B34
:10029000950B39F40A2661F0232B242B252B21F40E
:1002A00008950A2609F4A140A6958FEF811D811DAE
:1002B000089557FD9058440F551F59F05F3F71F056
:1002C0004795880F97FB991F61F09F3F79F08795BD
:1002D0000895121613061406551FF2CF4695F1DF46
:1002E00008C0161617061806991FF1CF86957105D6
:1002F000610508940895E894BB2766277727CB010A
:1003000097F90895B2DF08F48FEF08950BD078C005
:1003100069D028F06ED018F0952309F05AC05FC05C
:100320001124EACFC6DFA0F3959FD1F3950F50E0DB
:10033000551F629FF001729FBB27F00DB11D639F97
:10034000AA27F00DB11DAA1F649F6627B00DA11D3D
:10035000661F829F2227B00DA11D621F739FB00DE3
:10036000A11D621F839FA00D611D221F749F332753
:10037000A00D611D231F849F600D211D822F762FEC
:100380006A2F11249F5750408AF0E1F088234AF0E9
:10039000EE0FFF1FBB1F661F771F881F9150504035
:1003A000A9F79E3F510570F014C0A6CF5F3FECF354
:1003B000983EDCF3869577956795B795F795E79521
:1003C0009F5FC1F7FE2B880F911D9695879597F932
:1003D000089597F99F6780E870E060E008959FEFC7
:1003E00080EC089500240A941616170618060906CC
:1003F000089500240A94121613061406050608959B
:10040000092E0394000C11F4882352F0BB0F40F422
:10041000BF2B11F460FF04C06F5F7F4F8F4F9F4F62
:060420000895F894FFCFDF
:00000001FF
