:1000000012C02CC02BC02AC029C028C027C026C0BF
:1000100025C024C023C022C021C020C01FC01EC0D4
:100020001DC01CC01BC011241FBECFE5D4E0DEBF25
:10003000CDBF10E0A0E6B0E0E2E2F6E002C005903D
:100040000D92A236B107D9F720E0A2E6B0E001C0D8
:100050001D92AA36B207E1F76BD1E1C2D1CF8F92E0
:100060009F92AF92BF92CF92DF92EF92FF924B019D
:100070005C0120E030E04AE753E46ED26B017C0182
:1000800020E030E040E85FE356D187FD2CC020E05F
:100090003FEF4FE757E4C701B6015AD21816E4F410
:1000A00020E030E040E251E4C501B40155D2AFD1C7
:1000B00029E130E06115710549F4FF90EF90DF9080
:1000C000CF90BF90AF909F908F900895C9010197F6
:1000D000F1F761507109EECFC701B60198D1CB019C
:1000E0000197F1F7EACF61E070E0F9CF4F925F92AC
:1000F0006F927F928F929F92AF92BF92CF92DF9238
:10010000EF92FF92CF934B015C012BEA3AEA4AEA65
:100110005EE322D26B017C0120E030E040E85FE347
:100120000AD187FD73C020E030E040E85EE3C501FE
:10013000B40112D22B013C0120E03FEF4FE757E41E
:1001400007D218160CF040C020E030E04AE754E433
:10015000C501B401F4D04B015C0120E030E04AE776
:1001600053E4FAD16B017C0120E030E040E85FE32A
:10017000E2D087FD26C020E03FEF4FE757E4C701FC
:10018000B601E6D11816B4F420E030E040E251E4C4
:10019000C501B401E1D13BD129E130E06115710520
:1001A00019F4CA95F1F71FC0C9010197F1F7615021
:1001B0007109F4CFC701B6012AD1CB010197F1F73C
:1001C000F0CF61E070E0F9CF20E030E04FE753E49A
:1001D000C701B601BDD11816A4F4C301B20117D1ED
:1001E000CB010197F1F7CF91FF90EF90DF90CF9087
:1001F000BF90AF909F908F907F906F905F904F9047
:100200000895C701B60103D1C62FCBCFC1E0C9CF36
:1002100087B3866087BBA49A81E0089550E040E0F0
:10022000FC01208130E0042E02C0359527950A9408
:10023000E2F720FF0AC0AC9AC29AC2984F5F5F4FA4
:100240004830510569F781E00895AC98F5CFC19A1F
:10025000C19881E00895CF93DF930F92CDB7DEB7B9
:100260001982CE010196DADF91E0811101C090E0A0
:10027000892F0F90DF91CF91089584B3817F84BB44
:1002800085B38E6085BB81E0089583B323B331E0ED
:1002900083FB882780F98327880F806122FB222730
:1002A00020F92327822B93B3969591709327880F7B
:1002B000892B8770089581B38F6081BB81B3806F74
:1002C00081BB0895CF93DF93EC01CB01A7DFBFDFA4
:1002D0008881809582BB81E0DF91CF9108958091E4
:1002E0006000880F29F08093600080E690E0089518
:1002F00081E0F9CF8DDFAFDFAADFBFDFDCCFCF93A7
:10030000DF930F92CDB7DEB7C0DF80936100E7DFE8
:10031000BC019091610080E1989F90011124922B83
:100320009983CE010196CEDF0F90DF91CF91089592
:10033000E1DFE5DFFECF97D008F481E008950CD02F
:10034000CDC0C5D040F0BCD030F021F45F3F19F0F3
:10035000AEC05111F7C0B1C0D2D098F39923C9F300
:100360005523B1F3951B550BBB27AA2762177307BB
:10037000840738F09F5F5F4F220F331F441FAA1F6F
:10038000A9F333D00E2E3AF0E0E830D0915050402F
:10039000E695001CCAF729D0FE2F27D0660F771FDD
:1003A000881FBB1F261737074807AB07B0E809F0BF
:1003B000BB0B802DBF01FF2793585F4F2AF09E3F54
:1003C000510568F074C0BEC05F3FECF3983EDCF3AB
:1003D000869577956795B795F7959F5FC9F7880FCD
:1003E000911D9695879597F90895E1E0660F771F1F
:1003F000881FBB1F621773078407BA0720F0621BB0
:10040000730B840BBA0BEE1F88F7E09508957FD02D
:1004100088F09F5790F0B92F9927B751A0F0D1F0ED
:10042000660F771F881F991F1AF0BA95C9F712C077
:10043000B13081F086D0B1E0089583C0672F782F66
:100440008827B85F39F0B93FCCF3869577956795E3
:10045000B395D9F73EF490958095709561957F4F4F
:100460008F4F9F4F0895990F0008550FAA0BE0E892
:10047000FEEF16161706E807F907C0F01216130666
:10048000E407F50798F0621B730B840B950B39F4A6
:100490000A2661F0232B242B252B21F408950A260C
:1004A00009F4A140A6958FEF811D811D089597F94C
:1004B0009F6780E870E060E008959FEF80EC08950A
:1004C00000240A9416161706180609060895002433
:1004D0000A9412161306140605060895092E0394AD
:1004E000000C11F4882352F0BB0F40F4BF2B11F421
:1004F00060FF04C06F5F7F4F8F4F9F4F089557FD80
:100500009058440F551F59F05F3F71F04795880F81
:1005100097FB991F61F09F3F79F087950895121618
:1005200013061406551FF2CF4695F1DF08C01616C4
:1005300017061806991FF1CF869571056105089475
:100540000895E894BB2766277727CB0197F908958C
:100550008ADF08F48FEF08950BD0C0CFB1DF28F009
:10056000B6DF18F0952309F0A2CFA7CF1124EACF68
:10057000C6DFA0F3959FD1F3950F50E0551F629F02
:10058000F001729FBB27F00DB11D639FAA27F00DEC
:10059000B11DAA1F649F6627B00DA11D661F829F13
:1005A0002227B00DA11D621F739FB00DA11D621FF8
:1005B000839FA00D611D221F749F3327A00D611D15
:1005C000231F849F600D211D822F762F6A2F1124F7
:1005D0009F5750408AF0E1F088234AF0EE0FFF1F4A
:1005E000BB1F661F771F881F91505040A9F79E3F81
:1005F000510570F05CCFA6CF5F3FECF3983EDCF383
:10060000869577956795B795F795E7959F5FC1F7BD
:10061000FE2B880F911D9695879597F90895F8946C
:02062000FFCF0A
:020622000108CD
:00000001FF
